:400000000080002011000000850300008503000008B5044B1A6803F53F5302331A6000F0D7F900BFFA46004010B5054C237833B9044B13B10448AFF300800123237010BD97
:400040007881FF1F00000000F0180000084B10B51BB108490848AFF300800848036803B910BD074B002BFBD0BDE81040184700BF000000007C81FF1FF0180000C880FF1F92
:400080000000000010B584B000F080FA62B6102000F01AF804460A22694600F060FC00F02BFB00F0C1FA0028FBD000F07DFA00F0EBFA0A226946204600F051FC00F01CFBAD
:4000C000012000F02BFBECE710B50F2805D90A4B0A4A0A210A4800F0CFFB0446094B53F82000002807DC601EFFF7EEFF00FB04F0044B43F8240010BDFC180000F41800003D
:400100001C190000CC80FF1FFEE700BFF0B40022174611E050F82760F3B226F0FF0608E001EB420511F812406D78A5550132013BDBB2002BF4D10137252FEBD9F0BC7047E5
:40014000064B1B78DBB203F00701054A11701B09013213704422034B1A707047CF0100496E5800407658004038B500242A4B1C80192502331D7002331C8002331D7002335D
:400180001C8002331D7040F2A93202331A80182202331A70062203F272231A705222A3F580731A701D4B1B78DBB21D4A13704FF4E3621C4B1A8042F25122023B1A800CE0E2
:4001C000194B1B7803F0010343EA440404F003044FF4F07000F038FB013D0DB1032CEFD115B90320FFF790FF104A4FF4807313800723137000230E490B70482002310870A2
:4002000013700532137002220A4B1A700A4A137843F00F03137038BD804000400F010049A14600402242004025420040044000400640004001400040A243004008B50A465A
:40024000002100F099FB08BD08B500F08AFB08BD38B572B66122384B1A70FFF785FF374A137843F00403137000240CE0344D630019194A0011462A44084691882858FFF723
:40028000DDFF0134E4B2062CF0D900240BE02C49A3001819420088181022016BC06AFFF7D3FF0134E4B2002CF1D026494FF09040FFF72CFF244A254B1A60254B254A1360D1
:4002C00002F56072136002F55E522B32137843F0020313701032137843F0020313701E4C237843F040032370A2F58632513A137843F010031370082218491948FFF7A4FF2F
:400300000A2218491848FFF79FFF0A2217491848FFF79AFF082217491748FFF795FF174A137843F008031370FFF70AFF0E2221461348FFF789FF38BD00480040E846004047
:40034000281900009800004804040444D806014004040484D8140140A0430040BC0B004802510040C40B0048C0510040D00B0048F0510040DC0B00481251004022430040E8
:40038000B043004008B500F095FA03680C2B00D1FEE7FEE708B5C0B200F074F8FEE700BF08B5094B1A681044084BC31AB3F5004F02DC054B186005E000F07CFA0C230360D1
:4003C0004FF0FF32104608BD0C81FF1F3082FF1F08B5104E104D16E029686B68AC68002204E051F8040B43F8040B0432A242F8D1E868002203E0002143F8041B04328242BC
:40040000F9D11035013E002EE6D100F06BFAFFF739FEFEE7010000007C1A000008B5104A104B1A60104A136843F40073136000230AE0032B03D80D4A52F8231000E00C498E
:400440000C4A42F8231001332F2BF2D90A4B1A780A4B1A70074A0A4B1A60FFF7F9FE08BD0004FA050CED00E014ED00E000000000850300000080FF1FBC760040C080FF1F15
:4004800008ED00E001BE704770B504460E46074B1D681F2802D90020FFF7F4FF04F01F04103455F8240045F8246070BD08ED00E038B504460D46072902D90020FFF7E2FF11
:4004C0001F2C02D90020FFF7DDFF04F01F0000F1604000F564406D01EDB2057038BD00BF08B511490320FFF7CFFF07210320FFF7DFFF00220D4B1A7062220D4B1A702022A8
:4005000001331A700B490420FFF7BEFF07210420FFF7CEFF0622084B1A70472210331A700222B03B1A7008BD3D0700009481FF1F82640040D50700002965004010B500F02E
:400540008BF904460D4A137843F0200313700132137843F010031370094A0823136009490B7843F010030B70102307490B60136000F05CF9204600F073F910BD9264004079
:4005800000E100E09964004080E200E008B5054B5B7823B9FFF7A4FF0122024B5A70FFF7CDFF08BD9481FF1F0822194B1A60194A9378DBB2D178C9B2127912F0FF0F01D17E
:4005C0008B4211D0144AD05CC0B20133DBB23F2B00D900230F4A9370137913F0FF0F13D000220C4B1A710FE00C4B1B78DBB213F0200F06D00A4A1078C0B213F01E0F02D18B
:4006000002E0002000E000200822064B1A60704780E100E09481FF1FA881FF1F636400404564004000E100E00822144B1A60144B9A78D2B2DB78DBB29A4206D1104B1B7926
:4006400013F0FF0F15D0402014E00D4B9A78D2B2DB78DBB29A4205D2094AD3789078181AC0B207E0064AD3789078181A4030C0B200E000200822034B1A60704780E100E0DD
:400680009481FF1F00E100E0164BD9799B79DBB2994205D25A1E914214BF0022012204E0CA1A3F2A14BF00220122002AECD1994207D10D4B1B7813F0040F02D10B4B187048
:4006C00070473F2900D90021094B58540131054BD971054B1B7813F0020F02D01022054B1A6070479481FF1F6964004049640040E881FF1F00E200E038B5074B5B782BB92D
:4007000038BDFFF7C1FF0134A4B201E005460024285D0028F5D138BD9481FF1F08B5064B5B783BB1FFF7B0FF0D20FFF7ADFF0A20FFF7AAFF08BD00BF9481FF1F1D4B1B78DC
:40074000DBB213F01E0F05D01B4803F01E0201780A43027003F0200303F0FF0233B3174B1978C9B2164B1B78DBB21648C154164B1B7813F0FF0F02D00121144B19701049AD
:400780000B780133DBB20B700B78DBB23F2B02D900210B4B19700A4B1978C9B20C4B1B78DBB2994202D10121074B1970002AC5D1704700BF636400409481FF1F4564004049
:4007C0009781FF1FA881FF1F9881FF1F9981FF1F9681FF1F13E0104B1B78DBB23F2B02D900220D4B1A700C4A1378DBB20B49CB5CDBB20B490B7013780133DBB21370064BBC
:400800001B78DBB2074A1278934204D0064B1B7813F0040FDFD070479A81FF1FE881FF1F496400409B81FF1F69640040054A137843F0080313701032137843F00803137097
:40084000704700BFA24300400230800803D000BF01380046FCD17047EFF3108072B6704780F31088704700BF08B5062000F096FB0120FFF78FFD00001FB51C46094B0546E0
:400880001B68D86812B9084B1A4600E0074B8DE80A0002922B462246054900F011F8FFF7E3FF00BF7081FF1F991900005E1900006B190000014B1868704700BF7081FF1FEE
:4008C0000EB403B5014603AB054853F8042B0068019300F081F802B05DF804EB03B070477081FF1F0E4B70B51E460E4C0025E41AA410A54204D056F8253098470135F8E789
:4009000001F0AAF8084B094C1E46E41AA4100025A54204D056F8253098470135F8E770BD641A0000641A0000641A00006C1A0000931E222B10B50C4602D90020087010BD6D
:400940000A2A06D1002804DA2D230B704042012100E00021214400F03DFB204610BDFFF7E7BF10B5431E0A44914204D011F8014B03F8014FF8E710BD03460244934202D0FD
:4009800003F8011BFAE77047936810B4013B002B936008DA9469A34202DBCBB20A2B02D110BC00F053BB1368581C10601970C8B210BC7047F8B506460F461446D518AC4217
:4009C00008D03A4614F8011B3046FFF7DDFF431CF5D100E00020F8BD2DE9F04F9DB00C4617460393064618B183690BB900F0E0FC7F4B9C4201D1746808E07E4B9C4201D126
:400A0000B46803E07C4B9C4208BFF468A38918070CD5236953B10023099320238DF8293030238DF82A30DFF8D4B144E02146304600F060FB0028EED04FF0FF30D5E0039AD3
:400A4000111D12680391002A80F28C80524243F002000792049098F800302E2B00F08480032298F80010654800F08CFD48B14023CBEB000003FA00F0049B08F101081843A9
:400A8000049098F8001006225D4808F101078DF8281000F077FD002800F09580594B002B40F08880039B073323F0070308330393099B53440993B846454615F8013B1BB99C
:400AC000B8EB07090FD003E0252BF9D0A846F3E74B463A4621463046FFF76CFF01307FD0099B4B44099398F80030002B78D000234FF0FF3204930793059206938DF85330D3
:400B00001A930127052229783F4800F03BFD05F10108049B38B13C4A4546801A07FA00F018430490EEE7D90644BF20228DF853201A0744BF2B228DF853202A782A2A3FF4D4
:400B40007EAF079A00210A20A84698F800300135303B092B03D800FB02320121F4E700293FF479AF079276E798F801302A2B0BD1039B08F102081A1D1B680392002BB8BFD4
:400B80004FF0FF3305936BE700231946059308F101000A25804698F800200130303A092A03D805FB01210123F4E7002B3FF458AF059155E703AB00932246144B04A93046F5
:400BC000AFF3008007E003AB009322460F4B04A9304600F093F8B0F1FF3F82467FF468AFA3895B063FF528AF09981DB0BDE8F08FF8190000181A0000381A0000A61900009C
:400C0000AA19000000000000A0190000B50900002DE9F04791461F460A698B6806469342B8BF1346C9F8003091F843200C46DDF8208012B10133C9F800302368990642BFE3
:400C4000D9F800300233C9F80030256815F0060510D104F1190A07E00123524639463046C04701301AD00135E368D9F800209B1A9D42F1DB94F843302268003318BF012374
:400C800092060FD5E118302081F843005A1C94F845102244023382F8431003E04FF0FF30BDE8F08704F1430239463046C0470130F4D02268D9F80050E36802F00602042A3E
:400CC00008BF5D1B2269A3680CBF25EAE57500259342C4BF9B1AED184FF000091A344D4509D00123224639463046C0470130D5D009F10109F3E70020BDE8F0872DE9F043F2
:400D000017460A7E85B06E2A984606460C460C9B01F1430E00F0AE8011D8632A22D009D8002A00F0BB80582A40F0CA8081F84520834955E0642A1ED0692A1CD0C0E0732ACC
:400D400000F0B08009D86F2A2ED0702A40F0B8800A6842F020020A603EE0752A24D0782A3AD0ADE01A6801F14205111D1960136884F84230A8E021681A6811F0800F02D0FF
:400D8000111D196008E011F0400F02F10401196002D0B2F9003000E01368002B3CDA2D225B4284F8432037E021681A6811F0800F02D0111D196007E011F0400F02F1040175
:400DC000196001D0138800E01368227E5C496F2A14BF0A2208221BE078225A4984F845202268186812F0800F00F104051D6003D1550601D5038800E00368D00744BF42F09A
:400E0000200222601BB9226822F0200222601022002084F8430001E049490A226568002DA56008DB206820F0040020602BB9002D7DD175460CE0002B79D07546B3FBF2F087
:400E400002FB1033CB5C05F8013D03460028F5D1082A0BD12368DA0708D5236962689A42DEBF302305F8013C05F1FF35C5EB0E0323612EE008681A6810F0800F496903D063
:400E8000101D1860136808E010F0400F02F104001860136801D0198000E0196000232361754616E01A68111D1960156800216268284600F067FB08B1401B6060636804E002
:400EC00004F1420584F8422001232361002384F84330CDF800803B4603AA21463046FFF797FE013002D14FF0FF3026E023692A4639463046C0470130F5D023689B0710D5CB
:400F0000002504F1190907E001234A4639463046C0470130E7D00135E368039A9B1A9D42F2DBE068039B9842B8BF184605E00B7804F1420584F842308AE705B0BDE8F08312
:400F4000B1190000C21900001F2938B504460D4604D9162303604FF0FF3038BD426C12B152F821304BB9204600F032F82A4601462046BDE8384000F019B8012B0CD0591C16
:400F800003D116230360012038BD0024284642F825409847204638BD002038BD024B01461868FFF7D1BF00BF7081FF1F38B5074C0023054608461146236000F079FC431C29
:400FC00002D1236803B12B6038BD00BF2882FF1F00F05EBCF0B58BB003460F466D461A4C04F1200E2E4620686168083403C674453546F7D1217920683171911E2229306000
:401000004FF0000001D938701CE07D1EB3FBF2F402FB14330AAE334413F8283C411C05F8013F23460CB10846F0E77C543A18C11A8B4206DAF95C1478FC5402F801190133DA
:40104000F5E738460BB0F0BDD3190000F8B50F461446064618B183690BB900F0A9F9224B9C4201D1746808E0204B9C4201D1B46803E01F4B9C4208BFF468A369A360A3896E
:401080001A0709D523693BB123682069FDB2181A636998420FDB08E02146304600F02AF80028F1D04FF0FF30F8BD2146304600F015F90028F6D1A368013BA36023685A1C3C
:4010C00022601F706269431C934204D0A389DB0707D50A2D05D12146304600F0FFF80028E0D12846F8BD00BFF8190000181A0000381A0000324B70B51D6806460C4625B166
:40110000AB6913B9284600F053F92E4B9C4201D16C6808E02C4B9C4201D1AC6803E02B4B9C4208BFEC68B4F90C309AB215071DD4D00602D4092232603AE0510712D5616BE3
:4011400041B104F14403994202D0304600F028FA00236363A38923F02403A3810023636023692360A38943F00803A38123694BB9A38903F42073B3F5007F03D021463046F9
:4011800000F0C4F9A28912F0010305D00023A36063695B42A36103E0920758BF6369A36023695BB9B4F90C3003F0800080B230B143F04003A3814FF0FF3070BD002070BDF6
:4011C0007081FF1FF8190000181A0000381A00008A892DE9F041054610070C4659D44B68002B02DC0B6C002B17DDE66AAEB102F48052002392B22F682B600AB1606D15E041
:40120000216A01232846B047411C0FD12B686BB11D2B01D0162B03D12F600020BDE8F081A38943F04003A381BDE8F081A3895A0705D56368C01A636B0BB1236CC01A0023BD
:401240000246E66A216A2846B047431CA38906D129681D2939D8204ACA40D60735D5002262602269D904226004D5421C01D12B6803B96065616B2F600029CED004F14403F8
:40128000994202D0284600F08BF900206063BDE8F0810F69002FC0D093070E680CBF4B690023C7EB06080F608B6002E00744C0EB0808B8F1000FB0DD43463A46216A284674
:4012C000A66AB0470028F1DCA38943F04003A3814FF0FF30BDE8F0810100402038B50B6905460C46DBB118B183690BB900F060F80C4B9C4201D16C6808E00B4B9C4201D133
:40130000AC6803E0094B9C4208BFEC68B4F90C302BB121462846BDE83840FFF759BF002038BD00BFF8190000181A0000381A0000014900F0A9B800BFDD12000010B50446E3
:40134000002303604360836081814366C281036143618361194608225C30FFF70DFB054B24626362044BA362044BE362044B236310BD00BF15170000371700006F17000090
:401380009317000070B568234D1E5D430E4605F1740100F051F9044640B1002180E842000C30A06005F16802FFF7E6FA204670BD836910B5044633BB8364C3640365124B08
:4013C000124A1B688262984204BF0123836100F01FF86060204600F01BF8A060204600F017F80022E06004216068FFF7A7FF01220921A068FFF7A2FF02221221E068FFF784
:401400009DFF0123A36110BD9C19000031130000F8B51C4B07461E68B36913B93046FFF7C7FF4836B4687368013B04D4B4F90C507DB16834F8E733680BB13668F2E70421F3
:401440003846FFF79FFF30600028F6D10C233B60F8BD4FF6FF73E3810123A38165662560A560656025616561A5610822294604F15C00FFF781FA6563A563A564E5642046AA
:40148000F8BD00BF9C1900002DE9F8438046894600F14804002694B1A5686768013F0CD4AB89012B07D9B5F90E30013303D029464046C84706436835F0E72468EBE73046B1
:4014C000BDE8F88370B50E46B1F90E1090B0002914461D4606DA00232B60B3891A060ED540230EE001AA00F07BF90028F3DB029A02F47042A2F500535A425A412A604FF410
:4015000080630020236010B070BD00008B8973B59E0705460C4610D401AB6A46FFF7D2FF00990646284600F087F868B9B4F90C309A0522D443F00203A38104F14703236034
:4015400023610123636118E00D4BAB62A389206043F08003A381009B20616361019B4BB1B4F90E10284600F04DF918B1A38943F00103A381A0893043A08102B070BD00BF8A
:401580003113000010B5C9B202449042034605D01C7801308C42F8D1184610BD002010BD38B50546002944D051F8043C0C1F002BB8BFE41800F048F91E4A1368114613B9FF
:4015C0006360146030E0A3420DD92268A018834201BF18685B681218226063600C6023E0A24203D813465A68002AF9D118681918A1420BD12168014458188242196013D154
:4016000010685268014419605A600DE002D90C232B6009E021686018824201BF106852680918216062605C602846BDE8384000F00CB938BDA481FF1F70B5CD1C25F003051B
:4016400008350C2D38BF0C25002D064601DBA94202D90C23336046E000F0F6F8234B1C681A462146A1B10B685B1B0ED40B2B03D90B60CC18CD501EE08C420BBF63684B6883
:401680001360636018BF0C4615E00C464968E9E7174C23681BB9304600F02CF820602946304600F027F8431C18D0C41C24F00304A0420DD12560304600F0C7F804F10B0097
:4016C000231D20F00700C31A0ED05A42E25070BD211A304600F00EF80130EBD10C233360304600F0B2F8002070BD00BFA481FF1FA081FF1F38B5064C00230546084623606B
:40170000FEF74EFE431C02D1236803B12B6038BD2882FF1F10B50C46B1F90E1000F096F80028ABBF636DA3891B1823F48053ACBF6365A38110BD2DE9F0411F468B89054678
:40174000DB050C46164605D502230022B1F90E1000F068F8A389324623F48053A381B4F90E103B462846BDE8F04100F017B810B50C46B1F90E1000F055F8431CA38915BF26
:40178000606523F4805343F48053A38118BFA38110BDB1F90E1000F013B8000038B5074C054608461146002222601A4600F098F8431C02D1236803B12B6038BD2882FF1F94
:4017C00038B5064C002305460846236000F050F8431C02D1236803B12B6038BD2882FF1F38B5074C0023054608461146236000F047F8431C02D1236803B12B6038BD00BFC5
:401800002882FF1F38B5064C002305460846236000F046F8431C02D1236803B12B6038BD2882FF1F38B5074C054608461146002222601A4600F044F8431C02D1236803B1AA
:401840002B6038BD2882FF1F7047704738B5074C054608461146002222601A4600F038F8431C02D1236803B12B6038BD2882FF1F024B58221A604FF0FF3070472882FF1F77
:40188000024B58221A604FF0FF3070472882FF1F024B58221A604FF0FF3070472882FF1F024B58221A600020704700BF2882FF1F024B58221A604FF0FF3070472882FF1FFF
:4018C000024B58221A604FF0FF3070472882FF1F024B58221A604FF0FF3070472882FF1F024B58221A604FF0FF3070472882FF1F0000000066616374000000006E3C73693A
:401900007A656F66286D656D6F292F73697A656F66286D656D6F5B305D2900006473706D6174682E63000000004F00400C0020510040500000000140001000140140000882
:4019400000400140000A004C01400002105001401000000000500140AC0B004810002C2066756E6374696F6E3A2000617373657274696F6E2022257322206661696C656497
:401980003A2066696C6520222573222C206C696E65202564257325730A0043001081FF1F232D302B2000686C4C00656667454647003031323334353637383941424344451D
:4019C00046003031323334353637383961626364656600303132333435363738396162636465666768696A6B6C6D6E6F707172737475767778797A00000000000000000013
:401A000000000000000000000000000000000000000000000000000000000000000000000000000000000000000000000000000000000000000000000000000000000000A6
:401A4000000000000000000000000000000000000000000000000000F8B500BFF8BC08BC9E4670474D0000001D040000F8B500BFF8BC08BC9E46704729000000901A000027
:401A8000C880FF1FB0000000B800000000000000000000000100000001000000FFFFFFFF00000000000000000000000000000000000000000000000000000000000000005A
:401AC00000000000000000000000000000000000000000003082FF1F00000000F8190000181A0000381A0000000000000000000000000000000000009A19000000000000CE
:401B000000000000000000000000000000000000000000000000000000000000000000000000000000000000000000000000000000000000000000001081FF1F00000000F6
:401B40000000000000000000000000000000000000000000000000000000000000000000000000000000000000000000000000000000000000000000000000000000000065
:401B80000000000000000000000000000000000000000000000000000000000000000000000000000000000000000000000000000000000000000000000000000000000025
:401BC00000000000000000000000000000000000000000000000000000000000000000000000000000000000000000000000000000000000000000000000000000000000E5
:401C000000000000000000000000000000000000000000000000000000000000000000000000000000000000000000000000000000000000000000000000000000000000A4
:020000040003F7
:0200000480007A
:4000000001450040024F00400352004005640040046500404800014033010140520201404D0301405B0401404E050140690601404F0701405408014047090140040A0140A6
:40004000030B0140010D014056140140491501405D160140551701406718014050190140031B014006400140194101400C4201400743014001450140024601400947014091
:400080000148014003490140044C0140064D014004500140025101407E0201200A4B608061807C4082628338876F880F890F840F856F870F886F080309CF0A0C0B300F0F3E
:4000C0001005120A15FD16101702180F19731C0A1D9E1E051F602220240725942760280C2A032D302FC930203210340F37FF3F405608580459045B045D905F0181CF833095
:4001000084078594876088078D308E088FC99204930F95FD96409702980499739E07A210A620A801AA02AC01AD9EAE02AF60B020B210B440B60FB7FFBF40D608D804D90459
:40014000DB04DD90DF0100200518070208480A440C080D020E020F04102012401310154016A81A6C1B0D1CE01D041E0A2002270229042B012D402F0230E032043518360172
:40018000370438803B303D8A3E085B505CA06008624066A0854087048E01C0E2C2FFC4FECA1ACCEECEDCD63CD83CE64000CF01C00230032007F009070C300D050EC90F0A5B
:4001C0001180131015B0160F1740189419701A601D0A1F05209E210C2260230324FD250F2602287329032B0C2DC02F1031F034FF350F3A023E1056025711580459045B04DC
:400200005C035D305F0180C0816682248310855D86088720893B8C848E108F78940196F29A079D669F08A0C1A212A477A780A8B7A940AA40AB08B0F0B3C0B40FB507B7781D
:40024000B920D418D604D804D904DB04DD30DF01004001020320044005020A280F2811201280130414101520170A19021A881B101F21200821102288230724082513270804
:4002800029042B042C102D022F0A3240351036803705385839203B013C903D0A5A015E20600462426C026D1475207620848090409264948097209C809D109E019F04A051D1
:4002C000A205A30CA4A8A547A602A702AC20B202B750C09DC266C47ECAF6CCF8CEFFD621D80DE202E810EC40EE2001140349047F053F093F0A010C960E6810A31120125CA9
:40030000140E16F020C52101223A2306250A271128FE2A01310732FF3318352037403E04580459045C305F01801B8310840488048B018F019087923893089484965B97026E
:4003400098FB9A049B109C92A0FFA67BA809AB04AE80B118B2E4B302B407B501B618B704BA28BF11C023C104C205C401C6CEC80CC9FFCAFFCBFFCC62CDA0CEF0CF41D00C29
:40038000D608D804D904DA04DB04DC03DD93DF01E640E702E910EA30EB10ED10EE10EF1200880208052106200AA00C010D280F011120128015801680172819041D281E0119
:4003C0001F28214022022328240425442751282029012E802F053002342035093602372039143B013C103F814520468047484C01561057405C805F14650867099008913414
:4004000092E4931294849601972099209A209D149E419F05A057A112A28DA310A4A8A544A610A702AF10C077C2FCC4FACA23CCE1CEB7D0F0D210D670D870E20C00C5023AC4
:400440000601087F090210A31112125C130D170519022096226824FE251D26012702280E29162AF02B092D1F31033308351036FF370639083B023E403F104052410649FFB3
:400480004AFF4BFF4DA04F015018580459045A045C305F016040628064406540668068406A806C406D206E8080088402850289088D0C8F0392089D0CA206AA09B001B10244
:4004C000B204B301B402B508B608B704B9A0BE50BF11C052C106C534C6C2C70EC81FC9FFCAFFCBFFCDAFCE07CF01D018D280D40FD804D904DA04DB04DF05E040E280E440C0
:40050000E540E680E840EA80EC40ED20EE80010A05150B400D02128816081715198A1A081B401E0121242241241226122F29300831043280340135203602370839A83E2088
:400540004120452049804A804B144FB0514052245A1A5B8062247340792080C088808E4090089120924493029492972099209A309B199C819D109E419F04A011A102A20D6F
:40058000A338A428A610A702B080B304C07CC218C47ACA70CCE8CE2ED024D23CD60FD806DE04E001E204E601EC20EE0300400208043B05070A780D080F01110B13041466D5
:4005C000154016101720185D190C1A201B021D0C1E801F01236024662608271029702F0F3110327833403407350F36C0372038203F45540F5604580459045B045F01851058
:4006000086028B038D108F0C9401950C971199099B109D14A920AD1CAF02B001B320B402B51FBE01BF04C045C106C6EBC70CC81CC9FFCAFFCBFFCEF0CF44D00CD401D604D2
:40064000D804D904DA04DB04DC30DD33DF01E6C0EA40EB020320042406400B200C400E100F04170819201B011C241D101E152110220424502660270829802A102D202F62BD
:400680003080321836223786388039203A043B203E043F8040204104424049404A0850805104521058215A885C105E845F026201650181018304840186108A018C108F400A
:4006C0009E01A410AA01B010C074C2E4C420CAFCCCFECE5ED001D20CD6FFD881E440E681EE82B902BF01D904DF0126018201E208E2020210040E08020A040E0E10081608AC
:40070000180E26012C022E04301E34014013410549FF4AFF4BFF4DA04F015018540F560458045A045B045F016040628064406540668068406A806C406D206E8080088306BF
:400740008801910299019C03A003A20CA309B004B104B201B308B408B501B602B702B888BE14BF50C013C105C520C6C3C74EC83EC9FFCAFFCBFFCDAFCE07CF01D018D40FE3
:40078000D804D904DA04DB04DF05E040E280E440E540E680E840EA80EC40ED20EE8000220104030205110A440B200F02118013041680188019201B021D491E08241826028D
:4007C00027122E02360237103F024001410845884A014F42569A580A5B605C805D105E085F02610266187C087F208084850289108B01900191049244936494909802991072
:400800009B609D60A011A1C0A201A320A80CAB02AC80AD8CC05FC28EC415CA80CCA0CE80D05AD218D6FFD861DE40EA01EC08EE020066010C02100303050F083B09600D408F
:400840000F20106611051208130A151019071E801F6022782310245D25032620270C28402A082B102D0A2F053078312032C033403407350F371038203F455280580459046A
:400880005B045F0183018702880E8AF08B019096926894A3965C98FE9A019CC59E3A9F0CA201A47FA508A704A90EB102B2FFB304B508B701BE04BF55C064C101C9FFCAFFC0
:4008C000CBFFCDA0CF01D018D40FD604D804D904DA04DB04DF01E040E280E440E540E680E840EA80EC40ED20EE800020051109400A440B210D020E0110A011041608170576
:4009000019081D151F2A210422902380240525802620276429202B102D022E082F0A3240355036043701388239803A103B043C143D023F4040884150450348084A014B40A6
:40094000580859805A205B0262C17502800282208C40900A912092C5932594809A189B019D159E419F84A0B1A102A205A310A702A940AA10AC20B010B204B310B701C05204
:40098000C29FC47CCAF6CCF8CEF7D009D204D60FD801EA02000803080801130619081C031D0223092C032E0C3004310432013301340835083602370238883E143F504063CD
:4009C0004105452C4640473E483B49FF4AFF4BFF4DAF4E074F0150185280540F580459045A045B045F056040628064406540668068406A806C406D206E80840386048710AD
:400A00008B2C8C2A8D118E448F269073920C95119608970E9F13A080A215A708A873AA04AD2CAF13B00FB10FB2C0B32AB430B710B828BA02BB0ABE10BF40C002C704C9FF02
:400A4000CA07CBFFCC40CD20CEF0CF05D008D804D904DA04DC33DD03DF01E040E1A8E240E3200080018405110A600F0210801208160218A01A641D091E081F4820802248F9
:400A80002408276629802A042E013080314032083502376038A0390C3C024204450848804C044D024E024F065204560A57205C405D105E085F026608670474017C048912EE
:400AC0008E02904491089201948096E0978099109C409DC09E04A608A720AE04B262B307B610B780C055C28CC48ACA8ACCBACE8ED044D230D6F0D860DE40E410EA20ECA0AC
:400B0000EE10AB04AC40AF083128371138208F10CCF0CE10010203080408060109020D043010320235808602870894289D029E01A528AD02B301B404B601C0F0C230CC703F
:400B4000E240E440EC1059048010858094209C109D80A102A528AD04D640E230E8108120A528A904AC10B102E220EEC08604840496040A040B200C048101960497209C04E1
:400B8000AF10C20EA5088508A508E240A001A501B001E80111027401A001A501C408DE04100912141A011C0900FF01AB090114000000000009010901090000003F0000009B
:400BC000000000008000408080008000000000004000000000000000C0000000000B0B0000000000000000000000000000000000000000000000000000000000000000009F
:400C000000000000000000000000000000000000000000000000000000000000000000000000000000000000000000000000000000000000000000000000000000000000B4
:400C40000000000000000000000000000000000000000000000000000000000000000000000000000000000000000000000000000000000000000000000000000000000074
:400C80000000000000000000000000000000000000000000000000000000000000000000000000000000000000000000000000000000000000000000000000000000000034
:400CC00000000000000000000000000000000000000000000000000000000000000000000000000000000000000000000000000000000000000000000000000000000000F4
:0200000490006A
:0400000000004005B7
:0200000490105A
:04000000BC90ACAF55
:0200000490303A
:020000005E3D63
:0200000490402A
:4000000000000000000000000000000000000000000000000000000000000000000000000000000000000000000000000000000000000000000000000000000000000000C0
:400040000000000000000000000000000000000000000000000000000000000000000000000000000000000000000000000000000000000000000000000000000000000080
:400080000000000000000000000000000000000000000000000000000000000000000000000000000000000000000000000000000000000000000000000000000000000040
:4000C0000000000000000000000000000000000000000000000000000000000000000000000000000000000000000000000000000000000000000000000000000000000000
:0200000490501A
:0C00000000012E16106900012E236EA6D0
:00000001FF